{"abi":[{"type":"constructor","inputs":[],"stateMutability":"nonpayable"},{"type":"function","name":"DOMAIN_SEPARATOR","inputs":[],"outputs":[{"name":"result","type":"bytes32","internalType":"bytes32"}],"stateMutability":"view"},{"type":"function","name":"MINIMUM_LIQUIDITY","inputs":[],"outputs":[{"name":"","type":"uint256","internalType":"uint256"}],"stateMutability":"view"},{"type":"function","name":"allowance","inputs":[{"name":"owner","type":"address","internalType":"address"},{"name":"spender","type":"address","internalType":"address"}],"outputs":[{"name":"result","type":"uint256","internalType":"uint256"}],"stateMutability":"view"},{"type":"function","name":"approve","inputs":[{"name":"spender","type":"address","internalType":"address"},{"name":"amount","type":"uint256","internalType":"uint256"}],"outputs":[{"name":"","type":"bool","internalType":"bool"}],"stateMutability":"nonpayable"},{"type":"function","name":"balanceOf","inputs":[{"name":"owner","type":"address","internalType":"address"}],"outputs":[{"name":"result","type":"uint256","internalType":"uint256"}],"stateMutability":"view"},{"type":"function","name":"blockTimestampLast","inputs":[],"outputs":[{"name":"","type":"uint32","internalType":"uint32"}],"stateMutability":"view"},{"type":"function","name":"burn","inputs":[{"name":"to","type":"address","internalType":"address"}],"outputs":[{"name":"amount0","type":"uint256","internalType":"uint256"},{"name":"amount1","type":"uint256","internalType":"uint256"}],"stateMutability":"nonpayable"},{"type":"function","name":"decimals","inputs":[],"outputs":[{"name":"","type":"uint8","internalType":"uint8"}],"stateMutability":"view"},{"type":"function","name":"factory","inputs":[],"outputs":[{"name":"","type":"address","internalType":"address"}],"stateMutability":"view"},{"type":"function","name":"flashloan","inputs":[],"outputs":[],"stateMutability":"nonpayable"},{"type":"function","name":"getReserves","inputs":[],"outputs":[{"name":"reserve0_","type":"uint112","internalType":"uint112"},{"name":"reserve1_","type":"uint112","internalType":"uint112"},{"name":"blockTimestampLast_","type":"uint32","internalType":"uint32"}],"stateMutability":"view"},{"type":"function","name":"initialize","inputs":[{"name":"_token0","type":"address","internalType":"address"},{"name":"_token1","type":"address","internalType":"address"}],"outputs":[],"stateMutability":"nonpayable"},{"type":"function","name":"kLast","inputs":[],"outputs":[{"name":"","type":"uint256","internalType":"uint256"}],"stateMutability":"view"},{"type":"function","name":"mint","inputs":[{"name":"to","type":"address","internalType":"address"}],"outputs":[{"name":"liquidity","type":"uint256","internalType":"uint256"}],"stateMutability":"nonpayable"},{"type":"function","name":"name","inputs":[],"outputs":[{"name":"","type":"string","internalType":"string"}],"stateMutability":"pure"},{"type":"function","name":"nonces","inputs":[{"name":"owner","type":"address","internalType":"address"}],"outputs":[{"name":"result","type":"uint256","internalType":"uint256"}],"stateMutability":"view"},{"type":"function","name":"permit","inputs":[{"name":"owner","type":"address","internalType":"address"},{"name":"spender","type":"address","internalType":"address"},{"name":"value","type":"uint256","internalType":"uint256"},{"name":"deadline","type":"uint256","internalType":"uint256"},{"name":"v","type":"uint8","internalType":"uint8"},{"name":"r","type":"bytes32","internalType":"bytes32"},{"name":"s","type":"bytes32","internalType":"bytes32"}],"outputs":[],"stateMutability":"nonpayable"},{"type":"function","name":"price0CumulativeLast","inputs":[],"outputs":[{"name":"","type":"uint256","internalType":"uint256"}],"stateMutability":"view"},{"type":"function","name":"price1CumulativeLast","inputs":[],"outputs":[{"name":"","type":"uint256","internalType":"uint256"}],"stateMutability":"view"},{"type":"function","name":"reserve0","inputs":[],"outputs":[{"name":"","type":"uint112","internalType":"uint112"}],"stateMutability":"view"},{"type":"function","name":"reserve1","inputs":[],"outputs":[{"name":"","type":"uint112","internalType":"uint112"}],"stateMutability":"view"},{"type":"function","name":"skim","inputs":[{"name":"to","type":"address","internalType":"address"}],"outputs":[],"stateMutability":"nonpayable"},{"type":"function","name":"swap","inputs":[{"name":"amount0Out","type":"uint256","internalType":"uint256"},{"name":"amount1Out","type":"uint256","internalType":"uint256"},{"name":"to","type":"address","internalType":"address"},{"name":"data","type":"bytes","internalType":"bytes"}],"outputs":[],"stateMutability":"nonpayable"},{"type":"function","name":"symbol","inputs":[],"outputs":[{"name":"","type":"string","internalType":"string"}],"stateMutability":"pure"},{"type":"function","name":"sync","inputs":[],"outputs":[],"stateMutability":"nonpayable"},{"type":"function","name":"token0","inputs":[],"outputs":[{"name":"","type":"address","internalType":"address"}],"stateMutability":"view"},{"type":"function","name":"token1","inputs":[],"outputs":[{"name":"","type":"address","internalType":"address"}],"stateMutability":"view"},{"type":"function","name":"totalSupply","inputs":[],"outputs":[{"name":"result","type":"uint256","internalType":"uint256"}],"stateMutability":"view"},{"type":"function","name":"transfer","inputs":[{"name":"to","type":"address","internalType":"address"},{"name":"amount","type":"uint256","internalType":"uint256"}],"outputs":[{"name":"","type":"bool","internalType":"bool"}],"stateMutability":"nonpayable"},{"type":"function","name":"transferFrom","inputs":[{"name":"from","type":"address","internalType":"address"},{"name":"to","type":"address","internalType":"address"},{"name":"amount","type":"uint256","internalType":"uint256"}],"outputs":[{"name":"","type":"bool","internalType":"bool"}],"stateMutability":"nonpayable"},{"type":"event","name":"Approval","inputs":[{"name":"owner","type":"address","indexed":true,"internalType":"address"},{"name":"spender","type":"address","indexed":true,"internalType":"address"},{"name":"amount","type":"uint256","indexed":false,"internalType":"uint256"}],"anonymous":false},{"type":"event","name":"Burn","inputs":[{"name":"sender","type":"address","indexed":true,"internalType":"address"},{"name":"amount0","type":"uint256","indexed":false,"internalType":"uint256"},{"name":"amount1","type":"uint256","indexed":false,"internalType":"uint256"},{"name":"to","type":"address","indexed":true,"internalType":"address"}],"anonymous":false},{"type":"event","name":"Mint","inputs":[{"name":"sender","type":"address","indexed":true,"internalType":"address"},{"name":"amount0","type":"uint256","indexed":false,"internalType":"uint256"},{"name":"amount1","type":"uint256","indexed":false,"internalType":"uint256"}],"anonymous":false},{"type":"event","name":"Swap","inputs":[{"name":"sender","type":"address","indexed":true,"internalType":"address"},{"name":"amount0In","type":"uint256","indexed":false,"internalType":"uint256"},{"name":"amount1In","type":"uint256","indexed":false,"internalType":"uint256"},{"name":"amount0Out","type":"uint256","indexed":false,"internalType":"uint256"},{"name":"amount1Out","type":"uint256","indexed":false,"internalType":"uint256"},{"name":"to","type":"address","indexed":true,"internalType":"address"}],"anonymous":false},{"type":"event","name":"Sync","inputs":[{"name":"reserve0","type":"uint112","indexed":false,"internalType":"uint112"},{"name":"reserve1","type":"uint112","indexed":false,"internalType":"uint112"}],"anonymous":false},{"type":"event","name":"Transfer","inputs":[{"name":"from","type":"address","indexed":true,"internalType":"address"},{"name":"to","type":"address","indexed":true,"internalType":"address"},{"name":"amount","type":"uint256","indexed":false,"internalType":"uint256"}],"anonymous":false},{"type":"error","name":"AddressEmptyCode","inputs":[{"name":"target","type":"address","internalType":"address"}]},{"type":"error","name":"AddressInsufficientBalance","inputs":[{"name":"account","type":"address","internalType":"address"}]},{"type":"error","name":"AllowanceOverflow","inputs":[]},{"type":"error","name":"AllowanceUnderflow","inputs":[]},{"type":"error","name":"FailedInnerCall","inputs":[]},{"type":"error","name":"InsufficientAllowance","inputs":[]},{"type":"error","name":"InsufficientBalance","inputs":[]},{"type":"error","name":"InvalidPermit","inputs":[]},{"type":"error","name":"PermitExpired","inputs":[]},{"type":"error","name":"ReentrancyGuardReentrantCall","inputs":[]},{"type":"error","name":"SafeERC20FailedOperation","inputs":[{"name":"token","type":"address","internalType":"address"}]},{"type":"error","name":"TotalSupplyOverflow","inputs":[]}],"bytecode":{"object":"0x60a060405234801561001057600080fd5b506001600055336080526080516122416100436000396000818161042501528181610b450152611a2201526122416000f3fe608060405234801561001057600080fd5b50600436106101da5760003560e01c80636a62784211610104578063ba9a7a56116100a2578063d21220a711610071578063d21220a714610473578063d505accf14610486578063dd62ed3e14610499578063fff6cae9146104c257600080fd5b8063ba9a7a5614610404578063bc25cf771461040d578063c45a015514610420578063c5700a021461044757600080fd5b80637ecebe00116100de5780637ecebe001461038457806389afcb44146103aa57806395d89b41146103d2578063a9059cbb146103f157600080fd5b80636a6278421461034257806370a08231146103555780637464fc3d1461037b57600080fd5b806323b872dd1161017c578063485cc9551161014b578063485cc955146103035780635909c0d5146103165780635a3d54931461031f5780635a76f25e1461032857600080fd5b806323b872dd146102ae578063313ce567146102c15780633644e515146102d0578063443cb4bc146102d857600080fd5b8063095ea7b3116101b8578063095ea7b3146102465780630dfe16811461026957806318160ddd146102945780631b89b61a146101f257600080fd5b8063022c0d9f146101df57806306fdde03146101f45780630902f1ac14610212575b600080fd5b6101f26101ed366004611e9b565b6104ca565b005b6101fc61096c565b6040516102099190611f55565b60405180910390f35b61021a610990565b604080516001600160701b03948516815293909216602084015263ffffffff1690820152606001610209565b610259610254366004611f88565b6109ba565b6040519015158152602001610209565b60015461027c906001600160a01b031681565b6040516001600160a01b039091168152602001610209565b6805345cdf77eb68f44c545b604051908152602001610209565b6102596102bc366004611fb4565b610a10565b60405160128152602001610209565b6102a0610abd565b6003546102eb906001600160701b031681565b6040516001600160701b039091168152602001610209565b6101f2610311366004611ff5565b610b3a565b6102a060045481565b6102a060055481565b6003546102eb90600160701b90046001600160701b031681565b6102a061035036600461202e565b610bd0565b6102a061036336600461202e565b6387a211a2600c908152600091909152602090205490565b6102a060065481565b6102a061039236600461202e565b6338377508600c908152600091909152602090205490565b6103bd6103b836600461202e565b610e9a565b60408051928352602083019190915201610209565b60408051808201909152600381526205253560ec1b60208201526101fc565b6102596103ff366004611f88565b611364565b6102a06103e881565b6101f261041b36600461202e565b6113cd565b61027c7f000000000000000000000000000000000000000000000000000000000000000081565b60035461045e90600160e01b900463ffffffff1681565b60405163ffffffff9091168152602001610209565b60025461027c906001600160a01b031681565b6101f261049436600461204b565b611527565b6102a06104a7366004611ff5565b602052637f5e9f20600c908152600091909152603490205490565b6101f26116b0565b6104d26117a6565b60008511806104e15750600084115b6105405760405162461bcd60e51b815260206004820152602560248201527f556e697377617056323a20494e53554646494349454e545f4f55545055545f416044820152641353d5539560da1b60648201526084015b60405180910390fd5b60008061054b610990565b5091509150816001600160701b0316871080156105705750806001600160701b031686105b6105c65760405162461bcd60e51b815260206004820152602160248201527f556e697377617056323a20494e53554646494349454e545f4c495155494449546044820152605960f81b6064820152608401610537565b60015460025460009182916001600160a01b039182169190811690891682148015906106045750806001600160a01b0316896001600160a01b031614155b6106485760405162461bcd60e51b8152602060048201526015602482015274556e697377617056323a20494e56414c49445f544f60581b6044820152606401610537565b8a15610662576106626001600160a01b0383168a8d6117d0565b891561067c5761067c6001600160a01b0382168a8c6117d0565b6040516370a0823160e01b81523060048201526001600160a01b038316906370a0823190602401602060405180830381865afa1580156106c0573d6000803e3d6000fd5b505050506040513d601f19601f820116820180604052508101906106e491906120c2565b6040516370a0823160e01b81523060048201529094506001600160a01b038216906370a0823190602401602060405180830381865afa15801561072b573d6000803e3d6000fd5b505050506040513d601f19601f8201168201806040525081019061074f91906120c2565b92505050600089856001600160701b031661076a91906120f1565b8311610777576000610794565b61078a8a6001600160701b0387166120f1565b61079490846120f1565b905060006107ab8a6001600160701b0387166120f1565b83116107b85760006107d5565b6107cb8a6001600160701b0387166120f1565b6107d590846120f1565b905060008211806107e65750600081115b61083e5760405162461bcd60e51b8152602060048201526024808201527f556e697377617056323a20494e53554646494349454e545f494e5055545f414d60448201526313d5539560e21b6064820152608401610537565b600061084b836003612104565b610857866103e8612104565b61086191906120f1565b90506000610870836003612104565b61087c866103e8612104565b61088691906120f1565b905061089e6001600160701b03808916908a16612104565b6108ab90620f4240612104565b6108b58284612104565b10156108f25760405162461bcd60e51b815260206004820152600c60248201526b556e697377617056323a204b60a01b6044820152606401610537565b505061090084848888611827565b60408051838152602081018390529081018c9052606081018b90526001600160a01b038a169033907fd78ad95fa46c994b6551d0da85fc275fe613ce37657fb8d5e3d130840159d8229060800160405180910390a35050505050506109656001600055565b5050505050565b60408051808201909152600a8152692932a9bbb0b82830b4b960b11b602082015290565b6003546001600160701b0380821692600160701b830490911691600160e01b900463ffffffff1690565b600082602052637f5e9f20600c5233600052816034600c205581600052602c5160601c337f8c5be1e5ebec7d5bd14f71427d1e84f3dd0314c0f7b2291e5b200ac8c7c3b92560206000a35060015b92915050565b565b60008360601b33602052637f5e9f208117600c526034600c2080546001810115610a505780851115610a4a576313be252b6000526004601cfd5b84810382555b50506387a211a28117600c526020600c20805480851115610a795763f4d678b86000526004601cfd5b84810382555050836000526020600c208381540181555082602052600c5160601c8160601c6000805160206121ec833981519152602080a3505060015b9392505050565b600080610ac861096c565b8051906020012090506040517f8b73c3c69bb8fe3d512ecc4cf759cc79239f7b179b0ffacaa9a75d522b39400f81528160208201527fc89efdaa54c0f20c7adf612882df0950f5a951637e0307cdcb4c672f298b8bc6604082015246606082015230608082015260a081209250505090565b336001600160a01b037f00000000000000000000000000000000000000000000000000000000000000001614610ba25760405162461bcd60e51b815260206004820152600d60248201526c26a99d102327a92124a22222a760991b6044820152606401610537565b600180546001600160a01b039384166001600160a01b03199182161790915560028054929093169116179055565b6000610bda6117a6565b600080610be5610990565b506001546040516370a0823160e01b81523060048201529294509092506000916001600160a01b03909116906370a0823190602401602060405180830381865afa158015610c37573d6000803e3d6000fd5b505050506040513d601f19601f82011682018060405250810190610c5b91906120c2565b6002546040516370a0823160e01b81523060048201529192506000916001600160a01b03909116906370a0823190602401602060405180830381865afa158015610ca9573d6000803e3d6000fd5b505050506040513d601f19601f82011682018060405250810190610ccd91906120c2565b90506000610ce46001600160701b038616846120f1565b90506000610cfb6001600160701b038616846120f1565b90506000610d098787611a1d565b90506000610d1e6805345cdf77eb68f44c5490565b905080600003610d5b576103e8610d3d610d388587612104565b611b6f565b610d4791906120f1565b9850610d5660006103e8611bfb565b610da8565b610da56001600160701b038916610d728387612104565b610d7c9190612131565b6001600160701b038916610d908487612104565b610d9a9190612131565b808218908211021890565b98505b60008911610e095760405162461bcd60e51b815260206004820152602860248201527f556e697377617056323a20494e53554646494349454e545f4c495155494449546044820152671657d3525395115160c21b6064820152608401610537565b610e138a8a611bfb565b610e1f86868a8a611827565b8115610e4857600354610e44906001600160701b03600160701b820481169116612104565b6006555b604080518581526020810185905233917f4c209b5fc8ad50758f13e2e1088ba56a560dff690a1c6fef26394f4c03821c4f910160405180910390a25050505050505050610e956001600055565b919050565b600080610ea56117a6565b600080610eb0610990565b506001546002546040516370a0823160e01b81523060048201529395509193506001600160a01b039081169291169060009083906370a0823190602401602060405180830381865afa158015610f0a573d6000803e3d6000fd5b505050506040513d601f19601f82011682018060405250810190610f2e91906120c2565b6040516370a0823160e01b81523060048201529091506000906001600160a01b038416906370a0823190602401602060405180830381865afa158015610f78573d6000803e3d6000fd5b505050506040513d601f19601f82011682018060405250810190610f9c91906120c2565b90506000610fbc306387a211a2600c908152600091909152602090205490565b90506000610fca8888611a1d565b90506000610fdf6805345cdf77eb68f44c5490565b905080610fec8685612104565b610ff69190612131565b9a50806110038585612104565b61100d9190612131565b995060008b11801561101f575060008a115b61107c5760405162461bcd60e51b815260206004820152602860248201527f556e697377617056323a20494e53554646494349454e545f4c495155494449546044820152671657d0955493915160c21b6064820152608401610537565b6110863084611c68565b60015460405163a9059cbb60e01b81526001600160a01b038e81166004830152602482018e9052600092169063a9059cbb906044016020604051808303816000875af11580156110da573d6000803e3d6000fd5b505050506040513d601f19601f820116820180604052508101906110fe9190612145565b90506000600260009054906101000a90046001600160a01b03166001600160a01b031663a9059cbb8f8e6040518363ffffffff1660e01b81526004016111599291906001600160a01b03929092168252602082015260400190565b6020604051808303816000875af1158015611178573d6000803e3d6000fd5b505050506040513d601f19601f8201168201806040525081019061119c9190612145565b90508180156111a85750805b6111ea5760405162461bcd60e51b81526020600482015260136024820152721354ce881514905394d1915497d19052531151606a1b6044820152606401610537565b6040516370a0823160e01b81523060048201526001600160a01b038a16906370a0823190602401602060405180830381865afa15801561122e573d6000803e3d6000fd5b505050506040513d601f19601f8201168201806040525081019061125291906120c2565b6040516370a0823160e01b81523060048201529097506001600160a01b038916906370a0823190602401602060405180830381865afa158015611299573d6000803e3d6000fd5b505050506040513d601f19601f820116820180604052508101906112bd91906120c2565b95506112cb87878d8d611827565b83156112f4576003546112f0906001600160701b03600160701b820481169116612104565b6006555b8d6001600160a01b0316336001600160a01b03167fdccd412f0b1252819cb1fd330b93224ca42612892bb3f4f789976e6d819364968f8f604051611342929190918252602082015260400190565b60405180910390a3505050505050505050505061135f6001600055565b915091565b60006387a211a2600c52336000526020600c2080548084111561138f5763f4d678b86000526004601cfd5b83810382555050826000526020600c208281540181555081602052600c5160601c336000805160206121ec833981519152602080a350600192915050565b6113d56117a6565b6001546002546003546040516370a0823160e01b81523060048201526001600160a01b03938416939092169161147a9185916001600160701b039091169085906370a0823190602401602060405180830381865afa15801561143b573d6000803e3d6000fd5b505050506040513d601f19601f8201168201806040525081019061145f91906120c2565b61146991906120f1565b6001600160a01b03851691906117d0565b6003546040516370a0823160e01b8152306004820152611518918591600160701b9091046001600160701b0316906001600160a01b038516906370a0823190602401602060405180830381865afa1580156114d9573d6000803e3d6000fd5b505050506040513d601f19601f820116820180604052508101906114fd91906120c2565b61150791906120f1565b6001600160a01b03841691906117d0565b50506115246001600055565b50565b600061153161096c565b8051906020012090508442111561155057631a15a3cc6000526004601cfd5b6040518860601b60601c98508760601b60601c975065383775081901600e52886000526020600c2080547f8b73c3c69bb8fe3d512ecc4cf759cc79239f7b179b0ffacaa9a75d522b39400f83528360208401527fc89efdaa54c0f20c7adf612882df0950f5a951637e0307cdcb4c672f298b8bc6604084015246606084015230608084015260a08320602e527f6e71edae12b1b97f4d1f60370fef10105fa2faae0126114a169c64845d6126c983528a60208401528960408401528860608401528060808401528760a084015260c08320604e526042602c206000528660ff1660205285604052846060526020806080600060015afa8b3d511461165c5763ddafbaef6000526004601cfd5b0190556303faf4f960a51b88176040526034602c2087905587897f8c5be1e5ebec7d5bd14f71427d1e84f3dd0314c0f7b2291e5b200ac8c7c3b925602060608501a360405250506000606052505050505050565b6001546040516370a0823160e01b8152306004820152610a0e916001600160a01b0316906370a0823190602401602060405180830381865afa1580156116fa573d6000803e3d6000fd5b505050506040513d601f19601f8201168201806040525081019061171e91906120c2565b6002546040516370a0823160e01b81523060048201526001600160a01b03909116906370a0823190602401602060405180830381865afa158015611766573d6000803e3d6000fd5b505050506040513d601f19601f8201168201806040525081019061178a91906120c2565b6003546001600160701b0380821691600160701b900416611827565b6002600054036117c957604051633ee5aeb560e01b815260040160405180910390fd5b6002600055565b604080516001600160a01b038416602482015260448082018490528251808303909101815260649091019091526020810180516001600160e01b031663a9059cbb60e01b179052611822908490611ccd565b505050565b6001600160701b03841180159061184557506001600160701b038311155b6118805760405162461bcd60e51b815260206004820152600c60248201526b4d533a204f564552464c4f5760a01b6044820152606401610537565b600061189164010000000042612167565b6003549091506000906118b190600160e01b900463ffffffff168361217b565b905060008163ffffffff161180156118d157506001600160701b03841615155b80156118e557506001600160701b03831615155b15611985578063ffffffff16611916856001600160701b0316856001600160701b0316611d3090919063ffffffff16565b6119209190612104565b60046000828254611931919061219f565b925050819055508063ffffffff16611964846001600160701b0316866001600160701b0316611d3090919063ffffffff16565b61196e9190612104565b6005600082825461197f919061219f565b90915550505b6003805463ffffffff8416600160e01b026001600160e01b036001600160701b03898116600160701b9081026001600160e01b03199095168c83161794909417918216831794859055604080519382169282169290921783529290930490911660208201527f1c411e9a96e071241c2f21f7726b17ae89e3cab4c78be50e062b03a9fffbbad1910160405180910390a1505050505050565b6000807f00000000000000000000000000000000000000000000000000000000000000006001600160a01b031663017e7e586040518163ffffffff1660e01b8152600401602060405180830381865afa158015611a7e573d6000803e3d6000fd5b505050506040513d601f19601f82011682018060405250810190611aa291906121b2565b6006546001600160a01b038216158015945091925090611b5b578015611b56576000611add610d386001600160701b03808816908916612104565b90506000611aea83611b6f565b905080821115611b53576000611b0082846120f1565b6805345cdf77eb68f44c54611b159190612104565b9050600082611b25856005612104565b611b2f919061219f565b90506000611b3d8284612131565b90508015611b4f57611b4f8782611bfb565b5050505b50505b611b67565b8015611b675760006006555b505092915050565b70ffffffffffffffffffffffffffffffffff811160071b81811c68ffffffffffffffffff1060061b1781811c64ffffffffff1060051b1781811c62ffffff1060041b1781811c620100000160b5600192831c1b0260121c80830401811c80830401811c80830401811c80830401811c80830401811c80830401811c80830401901c908190048111900390565b6805345cdf77eb68f44c5481810181811015611c1f5763e5cfe9576000526004601cfd5b806805345cdf77eb68f44c5550506387a211a2600c52816000526020600c208181540181555080602052600c5160601c60006000805160206121ec833981519152602080a35050565b6387a211a2600c52816000526020600c20805480831115611c915763f4d678b86000526004601cfd5b82900390556805345cdf77eb68f44c8054829003905560008181526001600160a01b0383166000805160206121ec833981519152602083a35050565b6000611ce26001600160a01b03841683611d7f565b90508051600014158015611d07575080806020019051810190611d059190612145565b155b1561182257604051635274afe760e01b81526001600160a01b0384166004820152602401610537565b60007812725dd1d243aba0e75fe645cc4873f9e65afe688c928e1f218311670de0b6b3a764000002158202611d6d57637c5f487d6000526004601cfd5b50670de0b6b3a7640000919091020490565b6060610ab68383600084600080856001600160a01b03168486604051611da591906121cf565b60006040518083038185875af1925050503d8060008114611de2576040519150601f19603f3d011682016040523d82523d6000602084013e611de7565b606091505b5091509150611df7868383611e01565b9695505050505050565b606082611e1657611e1182611e5d565b610ab6565b8151158015611e2d57506001600160a01b0384163b155b15611e5657604051639996b31560e01b81526001600160a01b0385166004820152602401610537565b5080610ab6565b805115611e6d5780518082602001fd5b604051630a12f52160e11b815260040160405180910390fd5b6001600160a01b038116811461152457600080fd5b600080600080600060808688031215611eb357600080fd5b85359450602086013593506040860135611ecc81611e86565b9250606086013567ffffffffffffffff80821115611ee957600080fd5b818801915088601f830112611efd57600080fd5b813581811115611f0c57600080fd5b896020828501011115611f1e57600080fd5b9699959850939650602001949392505050565b60005b83811015611f4c578181015183820152602001611f34565b50506000910152565b6020815260008251806020840152611f74816040850160208701611f31565b601f01601f19169190910160400192915050565b60008060408385031215611f9b57600080fd5b8235611fa681611e86565b946020939093013593505050565b600080600060608486031215611fc957600080fd5b8335611fd481611e86565b92506020840135611fe481611e86565b929592945050506040919091013590565b6000806040838503121561200857600080fd5b823561201381611e86565b9150602083013561202381611e86565b809150509250929050565b60006020828403121561204057600080fd5b8135610ab681611e86565b600080600080600080600060e0888a03121561206657600080fd5b873561207181611e86565b9650602088013561208181611e86565b95506040880135945060608801359350608088013560ff811681146120a557600080fd5b9699959850939692959460a0840135945060c09093013592915050565b6000602082840312156120d457600080fd5b5051919050565b634e487b7160e01b600052601160045260246000fd5b81810381811115610a0857610a086120db565b8082028115828204841417610a0857610a086120db565b634e487b7160e01b600052601260045260246000fd5b6000826121405761214061211b565b500490565b60006020828403121561215757600080fd5b81518015158114610ab657600080fd5b6000826121765761217661211b565b500690565b63ffffffff828116828216039080821115612198576121986120db565b5092915050565b80820180821115610a0857610a086120db565b6000602082840312156121c457600080fd5b8151610ab681611e86565b600082516121e1818460208701611f31565b919091019291505056feddf252ad1be2c89b69c2b068fc378daa952ba7f163c4a11628f55a4df523b3efa26469706673582212202da48aa6b1290e98b3e40fa304aad3e5440974123dae46ac6bacc5091120607f64736f6c63430008140033","linkReferences":{}},"methodIdentifiers":{"DOMAIN_SEPARATOR()":"3644e515","MINIMUM_LIQUIDITY()":"ba9a7a56","allowance(address,address)":"dd62ed3e","approve(address,uint256)":"095ea7b3","balanceOf(address)":"70a08231","blockTimestampLast()":"c5700a02","burn(address)":"89afcb44","decimals()":"313ce567","factory()":"c45a0155","flashloan()":"1b89b61a","getReserves()":"0902f1ac","initialize(address,address)":"485cc955","kLast()":"7464fc3d","mint(address)":"6a627842","name()":"06fdde03","nonces(address)":"7ecebe00","permit(address,address,uint256,uint256,uint8,bytes32,bytes32)":"d505accf","price0CumulativeLast()":"5909c0d5","price1CumulativeLast()":"5a3d5493","reserve0()":"443cb4bc","reserve1()":"5a76f25e","skim(address)":"bc25cf77","swap(uint256,uint256,address,bytes)":"022c0d9f","symbol()":"95d89b41","sync()":"fff6cae9","token0()":"0dfe1681","token1()":"d21220a7","totalSupply()":"18160ddd","transfer(address,uint256)":"a9059cbb","transferFrom(address,address,uint256)":"23b872dd"},"id":8}